{
  "_format": "hh-sol-artifact-1",
  "contractName": "TaskManager",
  "sourceName": "contracts/TaskManager.sol",
  "abi": [
    {
      "inputs": [],
      "stateMutability": "nonpayable",
      "type": "constructor"
    },
    {
      "inputs": [
        {
          "internalType": "address",
          "name": "owner",
          "type": "address"
        }
      ],
      "name": "OwnableInvalidOwner",
      "type": "error"
    },
    {
      "inputs": [
        {
          "internalType": "address",
          "name": "account",
          "type": "address"
        }
      ],
      "name": "OwnableUnauthorizedAccount",
      "type": "error"
    },
    {
      "anonymous": false,
      "inputs": [
        {
          "indexed": true,
          "internalType": "address",
          "name": "previousOwner",
          "type": "address"
        },
        {
          "indexed": true,
          "internalType": "address",
          "name": "newOwner",
          "type": "address"
        }
      ],
      "name": "OwnershipTransferred",
      "type": "event"
    },
    {
      "anonymous": false,
      "inputs": [
        {
          "indexed": false,
          "internalType": "uint256",
          "name": "id",
          "type": "uint256"
        }
      ],
      "name": "TaskCompleted",
      "type": "event"
    },
    {
      "anonymous": false,
      "inputs": [
        {
          "indexed": false,
          "internalType": "uint256",
          "name": "id",
          "type": "uint256"
        },
        {
          "indexed": false,
          "internalType": "string",
          "name": "title",
          "type": "string"
        },
        {
          "indexed": false,
          "internalType": "address",
          "name": "owner",
          "type": "address"
        }
      ],
      "name": "TaskCreated",
      "type": "event"
    },
    {
      "anonymous": false,
      "inputs": [
        {
          "indexed": false,
          "internalType": "uint256",
          "name": "id",
          "type": "uint256"
        }
      ],
      "name": "TaskDeleted",
      "type": "event"
    },
    {
      "anonymous": false,
      "inputs": [
        {
          "indexed": false,
          "internalType": "uint256",
          "name": "id",
          "type": "uint256"
        },
        {
          "indexed": false,
          "internalType": "string",
          "name": "title",
          "type": "string"
        },
        {
          "indexed": false,
          "internalType": "string",
          "name": "description",
          "type": "string"
        }
      ],
      "name": "TaskUpdated",
      "type": "event"
    },
    {
      "inputs": [
        {
          "internalType": "string",
          "name": "_title",
          "type": "string"
        },
        {
          "internalType": "string",
          "name": "_description",
          "type": "string"
        }
      ],
      "name": "addTask",
      "outputs": [],
      "stateMutability": "nonpayable",
      "type": "function"
    },
    {
      "inputs": [
        {
          "internalType": "uint256",
          "name": "_taskId",
          "type": "uint256"
        }
      ],
      "name": "completeTask",
      "outputs": [],
      "stateMutability": "nonpayable",
      "type": "function"
    },
    {
      "inputs": [
        {
          "internalType": "uint256",
          "name": "_taskId",
          "type": "uint256"
        }
      ],
      "name": "deleteTask",
      "outputs": [],
      "stateMutability": "nonpayable",
      "type": "function"
    },
    {
      "inputs": [
        {
          "internalType": "uint256",
          "name": "_taskId",
          "type": "uint256"
        },
        {
          "internalType": "string",
          "name": "_title",
          "type": "string"
        },
        {
          "internalType": "string",
          "name": "_description",
          "type": "string"
        }
      ],
      "name": "editTask",
      "outputs": [],
      "stateMutability": "nonpayable",
      "type": "function"
    },
    {
      "inputs": [
        {
          "internalType": "uint256",
          "name": "_taskId",
          "type": "uint256"
        }
      ],
      "name": "getTask",
      "outputs": [
        {
          "components": [
            {
              "internalType": "uint256",
              "name": "id",
              "type": "uint256"
            },
            {
              "internalType": "string",
              "name": "title",
              "type": "string"
            },
            {
              "internalType": "string",
              "name": "description",
              "type": "string"
            },
            {
              "internalType": "bool",
              "name": "isCompleted",
              "type": "bool"
            },
            {
              "internalType": "address",
              "name": "owner",
              "type": "address"
            }
          ],
          "internalType": "struct TaskManager.Task",
          "name": "",
          "type": "tuple"
        }
      ],
      "stateMutability": "view",
      "type": "function"
    },
    {
      "inputs": [],
      "name": "owner",
      "outputs": [
        {
          "internalType": "address",
          "name": "",
          "type": "address"
        }
      ],
      "stateMutability": "view",
      "type": "function"
    },
    {
      "inputs": [],
      "name": "renounceOwnership",
      "outputs": [],
      "stateMutability": "nonpayable",
      "type": "function"
    },
    {
      "inputs": [
        {
          "internalType": "uint256",
          "name": "",
          "type": "uint256"
        }
      ],
      "name": "tasks",
      "outputs": [
        {
          "internalType": "uint256",
          "name": "id",
          "type": "uint256"
        },
        {
          "internalType": "string",
          "name": "title",
          "type": "string"
        },
        {
          "internalType": "string",
          "name": "description",
          "type": "string"
        },
        {
          "internalType": "bool",
          "name": "isCompleted",
          "type": "bool"
        },
        {
          "internalType": "address",
          "name": "owner",
          "type": "address"
        }
      ],
      "stateMutability": "view",
      "type": "function"
    },
    {
      "inputs": [
        {
          "internalType": "address",
          "name": "newOwner",
          "type": "address"
        }
      ],
      "name": "transferOwnership",
      "outputs": [],
      "stateMutability": "nonpayable",
      "type": "function"
    }
  ],
  "bytecode": "0x608060405234801561001057600080fd5b5033600073ffffffffffffffffffffffffffffffffffffffff168173ffffffffffffffffffffffffffffffffffffffff16036100845760006040517f1e4fbdf700000000000000000000000000000000000000000000000000000000815260040161007b919061019e565b60405180910390fd5b6100938161009960201b60201c565b506101b9565b60008060009054906101000a900473ffffffffffffffffffffffffffffffffffffffff169050816000806101000a81548173ffffffffffffffffffffffffffffffffffffffff021916908373ffffffffffffffffffffffffffffffffffffffff1602179055508173ffffffffffffffffffffffffffffffffffffffff168173ffffffffffffffffffffffffffffffffffffffff167f8be0079c531659141344cd1fd0a4f28419497f9722a3daafe3b4186f6b6457e060405160405180910390a35050565b600073ffffffffffffffffffffffffffffffffffffffff82169050919050565b60006101888261015d565b9050919050565b6101988161017d565b82525050565b60006020820190506101b3600083018461018f565b92915050565b6116b0806101c86000396000f3fe608060405234801561001057600080fd5b50600436106100935760003560e01c80638d977672116100665780638d9776721461010a5780638da5cb5b1461013e578063b37b10001461015c578063e1e2955814610178578063f2fde38b1461019457610093565b80631d65e77e146100985780634103c62e146100c8578063560f3192146100e4578063715018a614610100575b600080fd5b6100b260048036038101906100ad9190610cd0565b6101b0565b6040516100bf9190610e75565b60405180910390f35b6100e260048036038101906100dd9190610fcc565b61037c565b005b6100fe60048036038101906100f99190610cd0565b6104a8565b005b6101086105ff565b005b610124600480360381019061011f9190610cd0565b610613565b6040516101359594939291906110ce565b60405180910390f35b610146610786565b604051610153919061112f565b60405180910390f35b6101766004803603810190610171919061114a565b6107af565b005b610192600480360381019061018d9190610cd0565b6108fd565b005b6101ae60048036038101906101a991906111ee565b610a09565b005b6101b8610be2565b600160008381526020019081526020016000206040518060a0016040529081600082015481526020016001820180546101f09061124a565b80601f016020809104026020016040519081016040528092919081815260200182805461021c9061124a565b80156102695780601f1061023e57610100808354040283529160200191610269565b820191906000526020600020905b81548152906001019060200180831161024c57829003601f168201915b505050505081526020016002820180546102829061124a565b80601f01602080910402602001604051908101604052809291908181526020018280546102ae9061124a565b80156102fb5780601f106102d0576101008083540402835291602001916102fb565b820191906000526020600020905b8154815290600101906020018083116102de57829003601f168201915b505050505081526020016003820160009054906101000a900460ff161515151581526020016003820160019054906101000a900473ffffffffffffffffffffffffffffffffffffffff1673ffffffffffffffffffffffffffffffffffffffff1673ffffffffffffffffffffffffffffffffffffffff16815250509050919050565b3373ffffffffffffffffffffffffffffffffffffffff166001600085815260200190815260200160002060030160019054906101000a900473ffffffffffffffffffffffffffffffffffffffff1673ffffffffffffffffffffffffffffffffffffffff1614610420576040517f08c379a0000000000000000000000000000000000000000000000000000000008152600401610417906112c7565b60405180910390fd5b816001600085815260200190815260200160002060010190816104439190611493565b50806001600085815260200190815260200160002060020190816104679190611493565b507fe4096bc6e8c2668091cd0c1de61ba8e24d613d9ec02be5b617b02b190868cbb083838360405161049b93929190611565565b60405180910390a1505050565b3373ffffffffffffffffffffffffffffffffffffffff166001600083815260200190815260200160002060030160019054906101000a900473ffffffffffffffffffffffffffffffffffffffff1673ffffffffffffffffffffffffffffffffffffffff161461054c576040517f08c379a0000000000000000000000000000000000000000000000000000000008152600401610543906112c7565b60405180910390fd5b600160008281526020019081526020016000206000808201600090556001820160006105789190610c29565b6002820160006105889190610c29565b6003820160006101000a81549060ff02191690556003820160016101000a81549073ffffffffffffffffffffffffffffffffffffffff021916905550507fd078b251d950cc55c44340be1db732337ef4939a76e1367ee271ad2cb19c46af816040516105f491906115aa565b60405180910390a150565b610607610a8f565b6106116000610b16565b565b600160205280600052604060002060009150905080600001549080600101805461063c9061124a565b80601f01602080910402602001604051908101604052809291908181526020018280546106689061124a565b80156106b55780601f1061068a576101008083540402835291602001916106b5565b820191906000526020600020905b81548152906001019060200180831161069857829003601f168201915b5050505050908060020180546106ca9061124a565b80601f01602080910402602001604051908101604052809291908181526020018280546106f69061124a565b80156107435780601f1061071857610100808354040283529160200191610743565b820191906000526020600020905b81548152906001019060200180831161072657829003601f168201915b5050505050908060030160009054906101000a900460ff16908060030160019054906101000a900473ffffffffffffffffffffffffffffffffffffffff16905085565b60008060009054906101000a900473ffffffffffffffffffffffffffffffffffffffff16905090565b6000600260008154809291906107c4906115f4565b9190505590506040518060a001604052808281526020018481526020018381526020016000151581526020013373ffffffffffffffffffffffffffffffffffffffff168152506001600083815260200190815260200160002060008201518160000155602082015181600101908161083c9190611493565b5060408201518160020190816108529190611493565b5060608201518160030160006101000a81548160ff02191690831515021790555060808201518160030160016101000a81548173ffffffffffffffffffffffffffffffffffffffff021916908373ffffffffffffffffffffffffffffffffffffffff1602179055509050507fdc691e972cb25fd6e968744b5a6416d42a052ac1305e3b7ed6777b621304b7f28184336040516108f09392919061163c565b60405180910390a1505050565b3373ffffffffffffffffffffffffffffffffffffffff166001600083815260200190815260200160002060030160019054906101000a900473ffffffffffffffffffffffffffffffffffffffff1673ffffffffffffffffffffffffffffffffffffffff16146109a1576040517f08c379a0000000000000000000000000000000000000000000000000000000008152600401610998906112c7565b60405180910390fd5b600180600083815260200190815260200160002060030160006101000a81548160ff0219169083151502179055507fc1fa7142cfb933d0855114a3bffde296944c30b727f297c14d0db4d553d3a5c7816040516109fe91906115aa565b60405180910390a150565b610a11610a8f565b600073ffffffffffffffffffffffffffffffffffffffff168173ffffffffffffffffffffffffffffffffffffffff1603610a835760006040517f1e4fbdf7000000000000000000000000000000000000000000000000000000008152600401610a7a919061112f565b60405180910390fd5b610a8c81610b16565b50565b610a97610bda565b73ffffffffffffffffffffffffffffffffffffffff16610ab5610786565b73ffffffffffffffffffffffffffffffffffffffff1614610b1457610ad8610bda565b6040517f118cdaa7000000000000000000000000000000000000000000000000000000008152600401610b0b919061112f565b60405180910390fd5b565b60008060009054906101000a900473ffffffffffffffffffffffffffffffffffffffff169050816000806101000a81548173ffffffffffffffffffffffffffffffffffffffff021916908373ffffffffffffffffffffffffffffffffffffffff1602179055508173ffffffffffffffffffffffffffffffffffffffff168173ffffffffffffffffffffffffffffffffffffffff167f8be0079c531659141344cd1fd0a4f28419497f9722a3daafe3b4186f6b6457e060405160405180910390a35050565b600033905090565b6040518060a00160405280600081526020016060815260200160608152602001600015158152602001600073ffffffffffffffffffffffffffffffffffffffff1681525090565b508054610c359061124a565b6000825580601f10610c475750610c66565b601f016020900490600052602060002090810190610c659190610c69565b5b50565b5b80821115610c82576000816000905550600101610c6a565b5090565b6000604051905090565b600080fd5b600080fd5b6000819050919050565b610cad81610c9a565b8114610cb857600080fd5b50565b600081359050610cca81610ca4565b92915050565b600060208284031215610ce657610ce5610c90565b5b6000610cf484828501610cbb565b91505092915050565b610d0681610c9a565b82525050565b600081519050919050565b600082825260208201905092915050565b60005b83811015610d46578082015181840152602081019050610d2b565b60008484015250505050565b6000601f19601f8301169050919050565b6000610d6e82610d0c565b610d788185610d17565b9350610d88818560208601610d28565b610d9181610d52565b840191505092915050565b60008115159050919050565b610db181610d9c565b82525050565b600073ffffffffffffffffffffffffffffffffffffffff82169050919050565b6000610de282610db7565b9050919050565b610df281610dd7565b82525050565b600060a083016000830151610e106000860182610cfd565b5060208301518482036020860152610e288282610d63565b91505060408301518482036040860152610e428282610d63565b9150506060830151610e576060860182610da8565b506080830151610e6a6080860182610de9565b508091505092915050565b60006020820190508181036000830152610e8f8184610df8565b905092915050565b600080fd5b600080fd5b7f4e487b7100000000000000000000000000000000000000000000000000000000600052604160045260246000fd5b610ed982610d52565b810181811067ffffffffffffffff82111715610ef857610ef7610ea1565b5b80604052505050565b6000610f0b610c86565b9050610f178282610ed0565b919050565b600067ffffffffffffffff821115610f3757610f36610ea1565b5b610f4082610d52565b9050602081019050919050565b82818337600083830152505050565b6000610f6f610f6a84610f1c565b610f01565b905082815260208101848484011115610f8b57610f8a610e9c565b5b610f96848285610f4d565b509392505050565b600082601f830112610fb357610fb2610e97565b5b8135610fc3848260208601610f5c565b91505092915050565b600080600060608486031215610fe557610fe4610c90565b5b6000610ff386828701610cbb565b935050602084013567ffffffffffffffff81111561101457611013610c95565b5b61102086828701610f9e565b925050604084013567ffffffffffffffff81111561104157611040610c95565b5b61104d86828701610f9e565b9150509250925092565b61106081610c9a565b82525050565b600082825260208201905092915050565b600061108282610d0c565b61108c8185611066565b935061109c818560208601610d28565b6110a581610d52565b840191505092915050565b6110b981610d9c565b82525050565b6110c881610dd7565b82525050565b600060a0820190506110e36000830188611057565b81810360208301526110f58187611077565b905081810360408301526111098186611077565b905061111860608301856110b0565b61112560808301846110bf565b9695505050505050565b600060208201905061114460008301846110bf565b92915050565b6000806040838503121561116157611160610c90565b5b600083013567ffffffffffffffff81111561117f5761117e610c95565b5b61118b85828601610f9e565b925050602083013567ffffffffffffffff8111156111ac576111ab610c95565b5b6111b885828601610f9e565b9150509250929050565b6111cb81610dd7565b81146111d657600080fd5b50565b6000813590506111e8816111c2565b92915050565b60006020828403121561120457611203610c90565b5b6000611212848285016111d9565b91505092915050565b7f4e487b7100000000000000000000000000000000000000000000000000000000600052602260045260246000fd5b6000600282049050600182168061126257607f821691505b6020821081036112755761127461121b565b5b50919050565b7f4e6f74207461736b206f776e6572000000000000000000000000000000000000600082015250565b60006112b1600e83611066565b91506112bc8261127b565b602082019050919050565b600060208201905081810360008301526112e0816112a4565b9050919050565b60008190508160005260206000209050919050565b60006020601f8301049050919050565b600082821b905092915050565b6000600883026113497fffffffffffffffffffffffffffffffffffffffffffffffffffffffffffffffff8261130c565b611353868361130c565b95508019841693508086168417925050509392505050565b6000819050919050565b600061139061138b61138684610c9a565b61136b565b610c9a565b9050919050565b6000819050919050565b6113aa83611375565b6113be6113b682611397565b848454611319565b825550505050565b600090565b6113d36113c6565b6113de8184846113a1565b505050565b5b81811015611402576113f76000826113cb565b6001810190506113e4565b5050565b601f82111561144757611418816112e7565b611421846112fc565b81016020851015611430578190505b61144461143c856112fc565b8301826113e3565b50505b505050565b600082821c905092915050565b600061146a6000198460080261144c565b1980831691505092915050565b60006114838383611459565b9150826002028217905092915050565b61149c82610d0c565b67ffffffffffffffff8111156114b5576114b4610ea1565b5b6114bf825461124a565b6114ca828285611406565b600060209050601f8311600181146114fd57600084156114eb578287015190505b6114f58582611477565b86555061155d565b601f19841661150b866112e7565b60005b828110156115335784890151825560018201915060208501945060208101905061150e565b86831015611550578489015161154c601f891682611459565b8355505b6001600288020188555050505b505050505050565b600060608201905061157a6000830186611057565b818103602083015261158c8185611077565b905081810360408301526115a08184611077565b9050949350505050565b60006020820190506115bf6000830184611057565b92915050565b7f4e487b7100000000000000000000000000000000000000000000000000000000600052601160045260246000fd5b60006115ff82610c9a565b91507fffffffffffffffffffffffffffffffffffffffffffffffffffffffffffffffff8203611631576116306115c5565b5b600182019050919050565b60006060820190506116516000830186611057565b81810360208301526116638185611077565b905061167260408301846110bf565b94935050505056fea264697066735822122020d2b60c0c04031ff617461e9625b6f774d5cf67819d380b4f12055376533dfc64736f6c634300081c0033",
  "linkReferences": {},
  "deployedLinkReferences": {}
}